{
  "contractName": "CallMeChallenge",
  "abi": [
    {
      "constant": true,
      "inputs": [],
      "name": "isComplete",
      "outputs": [
        {
          "internalType": "bool",
          "name": "",
          "type": "bool"
        }
      ],
      "payable": false,
      "stateMutability": "view",
      "type": "function"
    },
    {
      "constant": false,
      "inputs": [],
      "name": "callme",
      "outputs": [],
      "payable": false,
      "stateMutability": "nonpayable",
      "type": "function"
    }
  ],
  "bytecode": "0x608060405260008060006101000a81548160ff02191690831515021790555034801561002a57600080fd5b5060c2806100396000396000f3fe6080604052348015600f57600080fd5b506004361060325760003560e01c8063a3c8e393146037578063b2fa1c9e14603f575b600080fd5b603d605f565b005b6045607b565b604051808215151515815260200191505060405180910390f35b60016000806101000a81548160ff021916908315150217905550565b6000809054906101000a900460ff168156fea265627a7a72315820fa9c8d1c1dc0d49a7793baee8b222c5389d5fd63be59cbbee05c810c704fcf8a64736f6c63430005100032",
  "source": "// SPDX-License-Identifier: MIT\r\npragma solidity >=0.4.21 <0.8.11;\r\n\r\ncontract CallMeChallenge {\r\n    bool public isComplete = false;\r\n\r\n    function callme() public {\r\n        isComplete = true;\r\n    }\r\n}",
  "sourcePath": "C:\\Work\\GIT\\clear-solidity\\capturetheether\\contracts\\CallMeChallenge.sol",
  "compiler": {
    "name": "solc",
    "version": "0.5.16+commit.9c3226ce.Emscripten.clang"
  },
  "schemaVersion": "3.4.4",
  "updatedAt": "2022-02-13T10:39:28.911Z",
  "devdoc": {
    "methods": {}
  },
  "userdoc": {
    "methods": {}
  }
}