{
  "contractName": "NicknameChallenge",
  "abi": [
    {
      "inputs": [
        {
          "internalType": "address",
          "name": "_player",
          "type": "address"
        }
      ],
      "payable": false,
      "stateMutability": "nonpayable",
      "type": "constructor"
    },
    {
      "constant": true,
      "inputs": [],
      "name": "isComplete",
      "outputs": [
        {
          "internalType": "bool",
          "name": "",
          "type": "bool"
        }
      ],
      "payable": false,
      "stateMutability": "view",
      "type": "function"
    }
  ],
  "bytecode": "0x6080604052336000806101000a81548173ffffffffffffffffffffffffffffffffffffffff021916908373ffffffffffffffffffffffffffffffffffffffff16021790555034801561005057600080fd5b506040516102963803806102968339818101604052602081101561007357600080fd5b810190808051906020019092919050505080600160006101000a81548173ffffffffffffffffffffffffffffffffffffffff021916908373ffffffffffffffffffffffffffffffffffffffff160217905550506101c1806100d56000396000f3fe608060405234801561001057600080fd5b506004361061002b5760003560e01c8063b2fa1c9e14610030575b600080fd5b610038610052565b604051808215151515815260200191505060405180910390f35b60008060f81b6000809054906101000a900473ffffffffffffffffffffffffffffffffffffffff1673ffffffffffffffffffffffffffffffffffffffff16636790081c600160009054906101000a900473ffffffffffffffffffffffffffffffffffffffff166040518263ffffffff1660e01b8152600401808273ffffffffffffffffffffffffffffffffffffffff1673ffffffffffffffffffffffffffffffffffffffff16815260200191505060206040518083038186803b15801561011857600080fd5b505afa15801561012c573d6000803e3d6000fd5b505050506040513d602081101561014257600080fd5b810190808051906020019092919050505060006020811061015f57fe5b1a60f81b7effffffffffffffffffffffffffffffffffffffffffffffffffffffffffffff1916141590509056fea265627a7a72315820524af4aa91de1d0853eedcbe00ebb89a383a4080db07f816390029f9cbed967064736f6c63430005100032",
  "source": "// SPDX-License-Identifier: MIT\r\npragma solidity >=0.4.21 <0.8.11;\r\n\r\n// Relevant part of the CaptureTheEther contract.\r\ncontract CaptureTheEther {\r\n    mapping (address => bytes32) public nicknameOf;\r\n\r\n    function setNickname(bytes32 nickname) public {\r\n        nicknameOf[msg.sender] = nickname;\r\n    }\r\n}\r\n\r\n// Challenge contract. You don't need to do anything with this; it just verifies\r\n// that you set a nickname for yourself.\r\ncontract NicknameChallenge {\r\n    CaptureTheEther cte = CaptureTheEther(msg.sender);\r\n    address player;\r\n\r\n    // Your address gets passed in as a constructor parameter.\r\n    constructor(address _player) public {\r\n        player = _player;\r\n    }\r\n\r\n    // Check that the first character is not null.\r\n    function isComplete() public view returns (bool) {\r\n        return cte.nicknameOf(player)[0] != 0;\r\n    }\r\n}",
  "sourcePath": "C:\\Work\\GIT\\clear-solidity\\capturetheether\\contracts\\Nickname.sol",
  "compiler": {
    "name": "solc",
    "version": "0.5.16+commit.9c3226ce.Emscripten.clang"
  },
  "schemaVersion": "3.4.4",
  "updatedAt": "2022-02-13T10:39:28.922Z",
  "devdoc": {
    "methods": {}
  },
  "userdoc": {
    "methods": {}
  }
}